{"abi":[{"type":"constructor","inputs":[{"name":"_antToken","type":"address","internalType":"address"}],"stateMutability":"nonpayable"},{"type":"function","name":"ANT_PRICE","inputs":[],"outputs":[{"name":"","type":"uint256","internalType":"uint256"}],"stateMutability":"view"},{"type":"function","name":"CANDIDATES_PER_POOL","inputs":[],"outputs":[{"name":"","type":"uint8","internalType":"uint8"}],"stateMutability":"view"},{"type":"function","name":"MAX_MERKLE_DEPTH","inputs":[],"outputs":[{"name":"","type":"uint8","internalType":"uint8"}],"stateMutability":"view"},{"type":"function","name":"PRECISION","inputs":[],"outputs":[{"name":"","type":"uint256","internalType":"uint256"}],"stateMutability":"view"},{"type":"function","name":"antToken","inputs":[],"outputs":[{"name":"","type":"address","internalType":"contract IERC20"}],"stateMutability":"view"},{"type":"function","name":"costUnitPerDataType","inputs":[{"name":"","type":"uint8","internalType":"enum IMerklePaymentVault.DataType"}],"outputs":[{"name":"","type":"uint256","internalType":"uint256"}],"stateMutability":"view"},{"type":"function","name":"estimateMerkleTreeCost","inputs":[{"name":"depth","type":"uint8","internalType":"uint8"},{"name":"poolCommitments","type":"tuple[]","internalType":"struct IMerklePaymentVault.PoolCommitment[]","components":[{"name":"poolHash","type":"bytes32","internalType":"bytes32"},{"name":"candidates","type":"tuple[16]","internalType":"struct IMerklePaymentVault.CandidateNode[16]","components":[{"name":"rewardsAddress","type":"address","internalType":"address"},{"name":"metrics","type":"tuple","internalType":"struct IMerklePaymentVault.QuotingMetrics","components":[{"name":"dataType","type":"uint8","internalType":"enum IMerklePaymentVault.DataType"},{"name":"closeRecordsStored","type":"uint256","internalType":"uint256"},{"name":"recordsPerType","type":"tuple[]","internalType":"struct IMerklePaymentVault.Record[]","components":[{"name":"dataType","type":"uint8","internalType":"enum IMerklePaymentVault.DataType"},{"name":"records","type":"uint256","internalType":"uint256"}]}]}]}]},{"name":"merklePaymentTimestamp","type":"uint64","internalType":"uint64"}],"outputs":[{"name":"totalAmount","type":"uint256","internalType":"uint256"}],"stateMutability":"view"},{"type":"function","name":"getPaymentInfo","inputs":[{"name":"winnerPoolHash","type":"bytes32","internalType":"bytes32"}],"outputs":[{"name":"info","type":"tuple","internalType":"struct IMerklePaymentVault.PaymentInfo","components":[{"name":"depth","type":"uint8","internalType":"uint8"},{"name":"merklePaymentTimestamp","type":"uint64","internalType":"uint64"},{"name":"paidNodeAddresses","type":"tuple[]","internalType":"struct IMerklePaymentVault.PaidNode[]","components":[{"name":"rewardsAddress","type":"address","internalType":"address"},{"name":"poolIndex","type":"uint8","internalType":"uint8"}]}]}],"stateMutability":"view"},{"type":"function","name":"maxCostUnit","inputs":[],"outputs":[{"name":"","type":"uint256","internalType":"uint256"}],"stateMutability":"view"},{"type":"function","name":"minPrice","inputs":[],"outputs":[{"name":"","type":"uint256","internalType":"uint256"}],"stateMutability":"view"},{"type":"function","name":"payForMerkleTree","inputs":[{"name":"depth","type":"uint8","internalType":"uint8"},{"name":"poolCommitments","type":"tuple[]","internalType":"struct IMerklePaymentVault.PoolCommitment[]","components":[{"name":"poolHash","type":"bytes32","internalType":"bytes32"},{"name":"candidates","type":"tuple[16]","internalType":"struct IMerklePaymentVault.CandidateNode[16]","components":[{"name":"rewardsAddress","type":"address","internalType":"address"},{"name":"metrics","type":"tuple","internalType":"struct IMerklePaymentVault.QuotingMetrics","components":[{"name":"dataType","type":"uint8","internalType":"enum IMerklePaymentVault.DataType"},{"name":"closeRecordsStored","type":"uint256","internalType":"uint256"},{"name":"recordsPerType","type":"tuple[]","internalType":"struct IMerklePaymentVault.Record[]","components":[{"name":"dataType","type":"uint8","internalType":"enum IMerklePaymentVault.DataType"},{"name":"records","type":"uint256","internalType":"uint256"}]}]}]}]},{"name":"merklePaymentTimestamp","type":"uint64","internalType":"uint64"}],"outputs":[{"name":"winnerPoolHash","type":"bytes32","internalType":"bytes32"},{"name":"totalAmount","type":"uint256","internalType":"uint256"}],"stateMutability":"nonpayable"},{"type":"function","name":"payments","inputs":[{"name":"","type":"bytes32","internalType":"bytes32"}],"outputs":[{"name":"depth","type":"uint8","internalType":"uint8"},{"name":"merklePaymentTimestamp","type":"uint64","internalType":"uint64"}],"stateMutability":"view"},{"type":"function","name":"scalingFactor","inputs":[],"outputs":[{"name":"","type":"uint256","internalType":"uint256"}],"stateMutability":"view"},{"type":"event","name":"DataPaymentMade","inputs":[{"name":"root","type":"bytes32","indexed":true,"internalType":"bytes32"},{"name":"treeDepth","type":"uint256","indexed":true,"internalType":"uint256"},{"name":"amount","type":"uint256","indexed":true,"internalType":"uint256"}],"anonymous":false},{"type":"event","name":"MerklePaymentMade","inputs":[{"name":"winnerPoolHash","type":"bytes32","indexed":true,"internalType":"bytes32"},{"name":"depth","type":"uint8","indexed":false,"internalType":"uint8"},{"name":"totalAmount","type":"uint256","indexed":false,"internalType":"uint256"},{"name":"merklePaymentTimestamp","type":"uint64","indexed":false,"internalType":"uint64"}],"anonymous":false},{"type":"error","name":"AntTokenNull","inputs":[]},{"type":"error","name":"BatchLimitExceeded","inputs":[]},{"type":"error","name":"DepthTooLarge","inputs":[{"name":"depth","type":"uint8","internalType":"uint8"},{"name":"max","type":"uint8","internalType":"uint8"}]},{"type":"error","name":"GracePeriodNotOver","inputs":[]},{"type":"error","name":"InvalidAmount","inputs":[]},{"type":"error","name":"InvalidChainlinkPrice","inputs":[]},{"type":"error","name":"InvalidInputLength","inputs":[]},{"type":"error","name":"InvalidQuoteHash","inputs":[]},{"type":"error","name":"InvalidRecipientsCount","inputs":[]},{"type":"error","name":"InvalidRoot","inputs":[]},{"type":"error","name":"InvalidTreeDepth","inputs":[]},{"type":"error","name":"PRBMath_SD59x18_Log_InputTooSmall","inputs":[{"name":"x","type":"int256","internalType":"SD59x18"}]},{"type":"error","name":"PaymentAlreadyExists","inputs":[{"name":"poolHash","type":"bytes32","internalType":"bytes32"}]},{"type":"error","name":"PaymentNotFound","inputs":[{"name":"poolHash","type":"bytes32","internalType":"bytes32"}]},{"type":"error","name":"PriceFeedNull","inputs":[]},{"type":"error","name":"RootAlreadyPaid","inputs":[]},{"type":"error","name":"SequencerDown","inputs":[]},{"type":"error","name":"WrongCandidateCount","inputs":[{"name":"poolIdx","type":"uint256","internalType":"uint256"},{"name":"expected","type":"uint256","internalType":"uint256"},{"name":"got","type":"uint256","internalType":"uint256"}]},{"type":"error","name":"WrongPoolCount","inputs":[{"name":"expected","type":"uint256","internalType":"uint256"},{"name":"got","type":"uint256","internalType":"uint256"}]}],"bytecode":{"object":"0x60a03461017e57601f6112e838819003918201601f19168301916001600160401b038311848410176101835780849260209460405283398101031261017e57516001600160a01b0381169081900361017e57670de0b6b3a7640000600155600360025569d3c21bcecceda10000006003558015610139576080526004602052670de0b6b3a76400007f91da3fd0782e51c6b3986e9e672fd566868e71f3dbc2d6c2cd6fbb3e361af2a78190557f17ef568e3e12ab5b9c7254a8d58478811de00f9e6eb34345acd53bf8fd09d3ec8190557fabd6e7cb50984ff9c2f3e18a2660c3353dadf4e3291deeb275dae2cd1e44fe0581905560036000527f2e174c10e159ea99b867ce3205125c24a42d128804e4070ed6fcc8cc98166aa05560405161114e908161019a823960805181818161051e01526107c50152f35b60405162461bcd60e51b815260206004820152601560248201527f496e76616c696420746f6b656e206164647265737300000000000000000000006044820152606490fd5b600080fd5b634e487b7160e01b600052604160045260246000fdfe608080604052600436101561001357600080fd5b60003560e01c908163043b75871461089e575080630716326d1461085f5780630e19c5391461082e578063137978c31461081257806335815564146107f45780634ec42e8e146107af578063937c07b7146103425780639e9dfde114610275578063a75e9b19146100f4578063aaf5eb68146100ef578063be29e3d0146100ef578063e45be8eb146100d15763ed3437f8146100ae57600080fd5b346100cc5760003660031901126100cc576020600154604051908152f35b600080fd5b346100cc5760003660031901126100cc576020600254604051908152f35b61095a565b346100cc5760203660031901126100cc5760043560606040805161011781610a52565b600081526000602082015201528060005260006020526040600020906040519061014082610a52565b600183549360ff851684526001600160401b03602085019560081c1685520190815461016b81610a8e565b926101796040519485610a6d565b818452602084019060005260206000206000915b83831061023f57505050506040830191825260ff8351161561022b576001600160401b038484846040519384936020855260ff6080860194511660208601525116604084015251906060808401528151809152602060a0840192019060005b8181106101fa575050500390f35b825180516001600160a01b0316855260209081015160ff1681860152869550604090940193909201916001016101ec565b63272f9fc160e01b60005260045260246000fd5b60016020819260405161025181610a37565b60ff8654858060a01b038116835260a01c168382015281520192019201919061018d565b346100cc57610283366108e7565b60ff841693600c85116103285761029990610aa5565b80830361030f575060005b8281106102ed5760206102e58660016102dd6102d86102cf8a8a6102c98b3383610ac0565b91610992565b868101906109ac565b610b3a565b911b906109c2565b604051908152f35b806103086102fe6001938688610992565b60208101906109ac565b50016102a4565b90506347fe11b560e11b60005260045260245260446000fd5b8463164b5f0360e11b600052600452600c60245260446000fd5b346100cc57610350366108e7565b92919060ff831692600c84116107955761036990610aa5565b80820361077e575060005b81811061076657509061038c916102c9853383610ac0565b9081359182600052600060205260ff604060002054166107515760208101926103c56103bb6102d886856109ac565b6001851b906109c2565b926103cf81610a8e565b916103dd6040519384610a6d565b818352601f196103ec83610a8e565b01366020850137604051946102006104048188610a6d565b36873760405160208101904482528360408201526001600160401b0360c01b8a60c01b1660608201526048815261043c606882610a6d565b5190209760009586995b85881080610747575b156104cc57604051602081019182528b604082015260408152610473606082610a6d565b51902099600f8b16896104868282610b1c565b511561049e575b505061049890610c57565b99610446565b988160016104b36104c494610498969d610b1c565b526104be828b610a0b565b52610c57565b97908961048d565b508590898689036107025785600093929352600060205260406000209081548868ffffffffffffffff008760081b169168ffffffffffffffffff19161717825561051688876109eb565b6001909201937f00000000000000000000000000000000000000000000000000000000000000006001600160a01b03169060005b8a81106105a1575060408989817f89f0ad3859fec321e325bcc553fe234bcad374789a86f7ba932067f3f05affec60608f6001600160401b038e88519283528660208401521687820152a282519182526020820152f35b60ff6105ad8288610a0b565b5116906105c3826105be87866109ac565b610a1f565b356001600160a01b038116908190036100cc576040516323b872dd60e01b815233600482015281602482015287604482015260208160648160008a5af19081156106f6576000916106b5575b50506040519061061e82610a37565b8152602081019283528854926801000000000000000084101561069f5760018401808b55841015610689576001938a60005260206000200191848060a01b0390511682549160ff60a01b905160a01b16916affffffffffffffffffffff60a81b16171790550161054a565b634e487b7160e01b600052603260045260246000fd5b634e487b7160e01b600052604160045260246000fd5b6020813d82116106ee575b816106cd60209383610a6d565b810103126106ea57519081151582036106e757508e61060f565b80fd5b5080fd5b3d91506106c0565b6040513d6000823e3d90fd5b60405162461bcd60e51b815260206004820152601f60248201527f4661696c656420746f2073656c65637420656e6f7567682077696e6e657273006044820152606490fd5b5060648b1061044f565b82639d8c19ed60e01b60005260045260246000fd5b806107776102fe6001938587610992565b5001610374565b6347fe11b560e11b60005260045260245260446000fd5b8363164b5f0360e11b600052600452600c60245260446000fd5b346100cc5760003660031901126100cc576040517f00000000000000000000000000000000000000000000000000000000000000006001600160a01b03168152602090f35b346100cc5760003660031901126100cc576020600354604051908152f35b346100cc5760003660031901126100cc57602060405160108152f35b346100cc5760203660031901126100cc5760043560048110156100cc576108566020916108b8565b54604051908152f35b346100cc5760203660031901126100cc576004356000526000602052604080600020546001600160401b0382519160ff8116835260081c166020820152f35b346100cc5760003660031901126100cc5780600c60209252f35b60048110156108d1576000526004602052604060002090565b634e487b7160e01b600052602160045260246000fd5b60606003198201126100cc5760043560ff811681036100cc57916024356001600160401b0381116100cc57826023820112156100cc578060040135926001600160401b0384116100cc5760248460051b830101116100cc5760240191906044356001600160401b03811681036100cc5790565b346100cc5760003660031901126100cc576020604051670de0b6b3a76400008152f35b903590603e19813603018212156100cc570190565b90821015610689576109a99160051b81019061097d565b90565b9035906101fe19813603018212156100cc570190565b818102929181159184041417156109d557565b634e487b7160e01b600052601160045260246000fd5b81156109f5570490565b634e487b7160e01b600052601260045260246000fd5b80518210156106895760209160051b010190565b6010821015610689576109a99160051b81019061097d565b604081019081106001600160401b0382111761069f57604052565b606081019081106001600160401b0382111761069f57604052565b90601f801991011681019081106001600160401b0382111761069f57604052565b6001600160401b03811161069f5760051b60200190565b60ff600191160160ff81116109d557607f600191821c161b90565b916040519060208201924484524260408401526bffffffffffffffffffffffff199060601b1660608301526001600160401b0360c01b9060c01b166074820152605c8152610b0f607c82610a6d565b51902081156109f5570690565b9060108110156106895760051b0190565b919082018092116109d557565b60405190610200610b4b8184610a6d565b36833760005b60108110610c1a575050906001915b60108310610b8557610b7f91925061010060e082015191015190610b2d565b60011c90565b610b8f8382610b1c565b5191835b8015801580610bfb575b15610be0576000198201918083116109d557610bc4610bbc8487610b1c565b519186610b1c565b5215610b9357634e487b7160e01b600052601160045260246000fd5b5092610bf26001939495929585610b1c565b52019190610b60565b5060001982018281116109d557610c13869186610b1c565b5111610b9d565b610c248183610a1f565b90602082013591605e19813603018312156100cc57600192610c469101610c7f565b610c508286610b1c565b5201610b51565b60001981146109d55760010190565b818103929160001380158285131691841216176109d557565b906000809260408101915b610c948383610eb9565b9050851015610ceb57610ca78383610eb9565b861015610689578560061b0180359160048310156100cc57610cdd610ce3926020610cd36001966108b8565b54910135906109c2565b90610b2d565b940193610c8a565b9150919250602082013590670de0b6b3a7640000820291808304670de0b6b3a764000014901517156109d5576103e8610d25920490610b2d565b610d2e81610eee565b913560048110156100cc57610d5591610d49610d50926108b8565b5490610b2d565b610eee565b908181148015610e9b575b8015610e8a575b610e8257610d7482610f28565b90610d7e81610f28565b9180158015610e7a575b610e7057610db192610da5610d9f610dab93610f86565b91610f86565b90610c66565b92610f6a565b90600154600160ff1b81146109d557600081810383810293918112600160ff1b8314166109d557830514901517156109d5576ec097ce7bc90715b34b9f100000000090059060025491670de0b6b3a7640000610e0d84846109c2565b0490670de0b6b3a7640000830292808404670de0b6b3a764000014901517156109d557600082820192831291129080158216911516176109d557670de0b6b3a764000080610e5d93040490610c66565b906000821315610e6b575090565b905090565b5050505060025490565b508215610d88565b505060025490565b50670de0b6b3a76400008214610d67565b50670de0b6b3a76400008114610d60565b919082039182116109d557565b903590601e19813603018212156100cc57018035906001600160401b0382116100cc57602001918160061b360383136100cc57565b6003548015610f2157670de0b6b3a7640000820291808304670de0b6b3a764000014901517156109d5576109a9916109eb565b5050600090565b670de0b6b3a7640000811015610f5457670de0b6b3a764000003670de0b6b3a764000081116109d55790565b670de0b6b3a763ffff1981019081116109d55790565b9080821015610f7d57906109a991610eac565b6109a991610eac565b8015610fc457610f9590610fcd565b670de0b6b3a7640000810290808205670de0b6b3a764000014901517156109d5576714057b7ef767814f900590565b50600160ff1b90565b80600081131561110457670de0b6b3a764000081126110e357506001905b670de0b6b3a764000081056fffffffffffffffffffffffffffffffff811160071b90811c6001600160401b03811160061b90811c63ffffffff811160051b90811c61ffff811160041b90811c9060ff821160031b91821c92600f841160021b93841c94600160038711811b96871c119617171717171717670de0b6b3a7640000810291811d90670de0b6b3a764000082146110d057506706f05b59d3b20000905b6000821361109a5750500290565b80670de0b6b3a764000091020590671bc16d674ec800008212156110c2575b60011d9061108c565b809192019160011d906110b9565b9050670de0b6b3a7640000929150020290565b600019915080156109f5576ec097ce7bc90715b34b9f100000000005610feb565b63059b101b60e01b60005260045260246000fdfea2646970667358221220bcbddcc92893be1f672d74784e6ed56fe1229dd155a382ef08b75dc7c07b9de664736f6c634300081c0033","linkReferences":{}},"methodIdentifiers":{"ANT_PRICE()":"be29e3d0","CANDIDATES_PER_POOL()":"137978c3","MAX_MERKLE_DEPTH()":"043b7587","PRECISION()":"aaf5eb68","antToken()":"4ec42e8e","costUnitPerDataType(uint8)":"0e19c539","estimateMerkleTreeCost(uint8,(bytes32,(address,(uint8,uint256,(uint8,uint256)[]))[16])[],uint64)":"9e9dfde1","getPaymentInfo(bytes32)":"a75e9b19","maxCostUnit()":"35815564","minPrice()":"e45be8eb","payForMerkleTree(uint8,(bytes32,(address,(uint8,uint256,(uint8,uint256)[]))[16])[],uint64)":"937c07b7","payments(bytes32)":"0716326d","scalingFactor()":"ed3437f8"},"id":1}