{"abi":[{"type":"constructor","inputs":[{"name":"_antToken","type":"address","internalType":"address"}],"stateMutability":"nonpayable"},{"type":"function","name":"ANT_PRICE","inputs":[],"outputs":[{"name":"","type":"uint256","internalType":"uint256"}],"stateMutability":"view"},{"type":"function","name":"CANDIDATES_PER_POOL","inputs":[],"outputs":[{"name":"","type":"uint8","internalType":"uint8"}],"stateMutability":"view"},{"type":"function","name":"DEFAULT_COST_UNIT","inputs":[],"outputs":[{"name":"","type":"uint256","internalType":"uint256"}],"stateMutability":"view"},{"type":"function","name":"MAX_MERKLE_DEPTH","inputs":[],"outputs":[{"name":"","type":"uint8","internalType":"uint8"}],"stateMutability":"view"},{"type":"function","name":"PRECISION","inputs":[],"outputs":[{"name":"","type":"uint256","internalType":"uint256"}],"stateMutability":"view"},{"type":"function","name":"antToken","inputs":[],"outputs":[{"name":"","type":"address","internalType":"contract IERC20"}],"stateMutability":"view"},{"type":"function","name":"costUnitPerDataType","inputs":[{"name":"","type":"uint8","internalType":"enum IMerklePaymentVault.DataType"}],"outputs":[{"name":"","type":"uint256","internalType":"uint256"}],"stateMutability":"view"},{"type":"function","name":"estimateMerkleTreeCost","inputs":[{"name":"depth","type":"uint8","internalType":"uint8"},{"name":"poolCommitments","type":"tuple[]","internalType":"struct IMerklePaymentVault.PoolCommitment[]","components":[{"name":"poolHash","type":"bytes32","internalType":"bytes32"},{"name":"candidates","type":"tuple[16]","internalType":"struct IMerklePaymentVault.CandidateNode[16]","components":[{"name":"rewardsAddress","type":"address","internalType":"address"},{"name":"metrics","type":"tuple","internalType":"struct IMerklePaymentVault.QuotingMetrics","components":[{"name":"dataType","type":"uint8","internalType":"enum IMerklePaymentVault.DataType"},{"name":"closeRecordsStored","type":"uint256","internalType":"uint256"},{"name":"recordsPerType","type":"tuple[]","internalType":"struct IMerklePaymentVault.Record[]","components":[{"name":"dataType","type":"uint8","internalType":"enum IMerklePaymentVault.DataType"},{"name":"records","type":"uint256","internalType":"uint256"}]}]}]}]},{"name":"merklePaymentTimestamp","type":"uint64","internalType":"uint64"}],"outputs":[{"name":"totalAmount","type":"uint256","internalType":"uint256"}],"stateMutability":"view"},{"type":"function","name":"getPaymentInfo","inputs":[{"name":"winnerPoolHash","type":"bytes32","internalType":"bytes32"}],"outputs":[{"name":"info","type":"tuple","internalType":"struct IMerklePaymentVault.PaymentInfo","components":[{"name":"depth","type":"uint8","internalType":"uint8"},{"name":"merklePaymentTimestamp","type":"uint64","internalType":"uint64"},{"name":"paidNodeAddresses","type":"tuple[]","internalType":"struct IMerklePaymentVault.PaidNode[]","components":[{"name":"rewardsAddress","type":"address","internalType":"address"},{"name":"poolIndex","type":"uint8","internalType":"uint8"}]}]}],"stateMutability":"view"},{"type":"function","name":"maxCostUnit","inputs":[],"outputs":[{"name":"","type":"uint256","internalType":"uint256"}],"stateMutability":"view"},{"type":"function","name":"minPrice","inputs":[],"outputs":[{"name":"","type":"uint256","internalType":"uint256"}],"stateMutability":"view"},{"type":"function","name":"payForMerkleTree","inputs":[{"name":"depth","type":"uint8","internalType":"uint8"},{"name":"poolCommitments","type":"tuple[]","internalType":"struct IMerklePaymentVault.PoolCommitment[]","components":[{"name":"poolHash","type":"bytes32","internalType":"bytes32"},{"name":"candidates","type":"tuple[16]","internalType":"struct IMerklePaymentVault.CandidateNode[16]","components":[{"name":"rewardsAddress","type":"address","internalType":"address"},{"name":"metrics","type":"tuple","internalType":"struct IMerklePaymentVault.QuotingMetrics","components":[{"name":"dataType","type":"uint8","internalType":"enum IMerklePaymentVault.DataType"},{"name":"closeRecordsStored","type":"uint256","internalType":"uint256"},{"name":"recordsPerType","type":"tuple[]","internalType":"struct IMerklePaymentVault.Record[]","components":[{"name":"dataType","type":"uint8","internalType":"enum IMerklePaymentVault.DataType"},{"name":"records","type":"uint256","internalType":"uint256"}]}]}]}]},{"name":"merklePaymentTimestamp","type":"uint64","internalType":"uint64"}],"outputs":[{"name":"winnerPoolHash","type":"bytes32","internalType":"bytes32"},{"name":"totalAmount","type":"uint256","internalType":"uint256"}],"stateMutability":"nonpayable"},{"type":"function","name":"payForMerkleTree2","inputs":[{"name":"depth","type":"uint8","internalType":"uint8"},{"name":"poolCommitments","type":"tuple[]","internalType":"struct IMerklePaymentVault.PoolCommitmentPacked[]","components":[{"name":"poolHash","type":"bytes32","internalType":"bytes32"},{"name":"candidates","type":"tuple[16]","internalType":"struct IMerklePaymentVault.CandidateNodePacked[16]","components":[{"name":"rewardsAddress","type":"address","internalType":"address"},{"name":"dataTypeAndTotalCostUnit","type":"uint256","internalType":"uint256"}]}]},{"name":"merklePaymentTimestamp","type":"uint64","internalType":"uint64"}],"outputs":[{"name":"winnerPoolHash","type":"bytes32","internalType":"bytes32"},{"name":"totalAmount","type":"uint256","internalType":"uint256"}],"stateMutability":"nonpayable"},{"type":"function","name":"payments","inputs":[{"name":"","type":"bytes32","internalType":"bytes32"}],"outputs":[{"name":"depth","type":"uint8","internalType":"uint8"},{"name":"merklePaymentTimestamp","type":"uint64","internalType":"uint64"}],"stateMutability":"view"},{"type":"function","name":"scalingFactor","inputs":[],"outputs":[{"name":"","type":"uint256","internalType":"uint256"}],"stateMutability":"view"},{"type":"event","name":"DataPaymentMade","inputs":[{"name":"root","type":"bytes32","indexed":true,"internalType":"bytes32"},{"name":"treeDepth","type":"uint256","indexed":true,"internalType":"uint256"},{"name":"amount","type":"uint256","indexed":true,"internalType":"uint256"}],"anonymous":false},{"type":"event","name":"MerklePaymentMade","inputs":[{"name":"winnerPoolHash","type":"bytes32","indexed":true,"internalType":"bytes32"},{"name":"depth","type":"uint8","indexed":false,"internalType":"uint8"},{"name":"totalAmount","type":"uint256","indexed":false,"internalType":"uint256"},{"name":"merklePaymentTimestamp","type":"uint64","indexed":false,"internalType":"uint64"}],"anonymous":false},{"type":"error","name":"AntTokenNull","inputs":[]},{"type":"error","name":"BatchLimitExceeded","inputs":[]},{"type":"error","name":"DepthTooLarge","inputs":[{"name":"depth","type":"uint8","internalType":"uint8"},{"name":"max","type":"uint8","internalType":"uint8"}]},{"type":"error","name":"GracePeriodNotOver","inputs":[]},{"type":"error","name":"InvalidAmount","inputs":[]},{"type":"error","name":"InvalidChainlinkPrice","inputs":[]},{"type":"error","name":"InvalidInputLength","inputs":[]},{"type":"error","name":"InvalidQuoteHash","inputs":[]},{"type":"error","name":"InvalidRecipientsCount","inputs":[]},{"type":"error","name":"InvalidRoot","inputs":[]},{"type":"error","name":"InvalidTreeDepth","inputs":[]},{"type":"error","name":"PRBMath_SD59x18_Log_InputTooSmall","inputs":[{"name":"x","type":"int256","internalType":"SD59x18"}]},{"type":"error","name":"PaymentAlreadyExists","inputs":[{"name":"poolHash","type":"bytes32","internalType":"bytes32"}]},{"type":"error","name":"PaymentNotFound","inputs":[{"name":"poolHash","type":"bytes32","internalType":"bytes32"}]},{"type":"error","name":"PriceFeedNull","inputs":[]},{"type":"error","name":"RootAlreadyPaid","inputs":[]},{"type":"error","name":"SequencerDown","inputs":[]},{"type":"error","name":"WrongCandidateCount","inputs":[{"name":"poolIdx","type":"uint256","internalType":"uint256"},{"name":"expected","type":"uint256","internalType":"uint256"},{"name":"got","type":"uint256","internalType":"uint256"}]},{"type":"error","name":"WrongPoolCount","inputs":[{"name":"expected","type":"uint256","internalType":"uint256"},{"name":"got","type":"uint256","internalType":"uint256"}]}],"bytecode":{"object":"0x60a03461018457601f61160838819003918201601f19168301916001600160401b038311848410176101885780849260209460405283398101031261018457516001600160a01b0381169081900361018457670de0b6b3a7640000600155600360025569d3c21bcecceda1000000600355801561013f576080526004602052670de0b6b3a76400007f91da3fd0782e51c6b3986e9e672fd566868e71f3dbc2d6c2cd6fbb3e361af2a78190557f17ef568e3e12ab5b9c7254a8d58478811de00f9e6eb34345acd53bf8fd09d3ec8190557fabd6e7cb50984ff9c2f3e18a2660c3353dadf4e3291deeb275dae2cd1e44fe0581905560035f527f2e174c10e159ea99b867ce3205125c24a42d128804e4070ed6fcc8cc98166aa05560405161146b908161019d82396080518181816102720152818161075e01526108da0152f35b60405162461bcd60e51b815260206004820152601560248201527f496e76616c696420746f6b656e206164647265737300000000000000000000006044820152606490fd5b5f80fd5b634e487b7160e01b5f52604160045260245ffdfe6080806040526004361015610012575f80fd5b5f3560e01c908163043b7587146109ae575080630716326d146109725780630e19c53914610941578063137978c31461092657806335815564146109095780634ec42e8e146108c55780636ecfa702146100ff578063937c07b7146106835780639e9dfde1146105bb578063a75e9b1914610445578063a960bd4914610104578063aaf5eb68146100ff578063be29e3d0146100ff578063e45be8eb146100e25763ed3437f8146100c1575f80fd5b346100de575f3660031901126100de576020600154604051908152f35b5f80fd5b346100de575f3660031901126100de576020600254604051908152f35b6109f2565b346100de5760603660031901126100de5760043560ff8116908181036100de57602435916001600160401b0383116100de57366023840112156100de578260040135926001600160401b0384116100de573660246104208602830101116100de57604435936001600160401b03851685036100de57600c831161042d5761018a84610c58565b808203610418575061019d853383610c73565b9081101561040457610420020191602483013592835f525f60205260ff60405f2054166103f15760440193610200604051906101d98183610b9b565b3682375f5b601081106103c75750610208816101f7610215936110e1565b61010060e082015191015190610ce0565b60011c6001851b90610acc565b92610221828685610d6b565b5f868152602081905260409020805468ffffffffffffffff0019841668ffffffffffffffffff1990911617600885901b68ffffffffffffffff001617815590969061026c8387610af3565b906001017f00000000000000000000000000000000000000000000000000000000000000006001600160a01b03165f5b8581106102ff576040805160ff8a168152602081018b90526001600160401b038916818301528b908b9082907f89f0ad3859fec321e325bcc553fe234bcad374789a86f7ba932067f3f05affec9080606081015b0390a282519182526020820152f35b60ff61030b828d610b11565b51169061032061031b8388610c47565b610b3d565b6040516323b872dd60e01b81523360048201526001600160a01b03821660248201526044810187905292906020846064815f895af19182156103bc5760019461038a93610390575b506040519161037683610b51565b858060a01b03168252602082015285610bd4565b0161029c565b6103b09060203d81116103b5575b6103a88183610b9b565b810190610bbc565b610368565b503d61039e565b6040513d5f823e3d90fd5b806103e060206103d96001948b610c47565b0135611184565b6103ea8285610ccf565b52016101de565b83639d8c19ed60e01b5f5260045260245ffd5b634e487b7160e01b5f52603260045260245ffd5b6347fe11b560e11b5f5260045260245260445ffd5b8263164b5f0360e11b5f52600452600c60245260445ffd5b346100de5760203660031901126100de5760043560606040805161046881610b80565b5f81525f60208201520152805f525f60205260405f20906040519061048c82610b80565b600183549360ff851684526001600160401b03602085019560081c168552019081546104b781610c30565b926104c56040519485610b9b565b81845260208401905f5260205f205f915b83831061058557505050506040830191825260ff83511615610573576001600160401b038484846040519384936020855260ff6080860194511660208601525116604084015251906060808401528151809152602060a084019201905f5b818110610542575050500390f35b825180516001600160a01b0316855260209081015160ff168186015286955060409094019390920191600101610534565b63272f9fc160e01b5f5260045260245ffd5b60016020819260405161059781610b51565b60ff8654858060a01b038116835260a01c16838201528152019201920191906104d6565b346100de576105c936610a14565b60ff841693600c851161066b576105df90610c58565b80830361065457505f5b82811061063257602061062a86600161062261061d6106148a8a61060e8b3383610c73565b91610a9c565b86810190610ab6565b610ced565b911b90610acc565b604051908152f35b8061064d6106436001938688610a9c565b6020810190610ab6565b50016105e9565b90506347fe11b560e11b5f5260045260245260445ffd5b8463164b5f0360e11b5f52600452600c60245260445ffd5b346100de5761069136610a14565b909160ff841692600c84116108ad576106a985610c58565b80820361041857505f5b8181106108955750906106cb9161060e843383610c73565b90813592835f525f60205260ff60405f2054166103f157602083016107006106f661061d8387610ab6565b6001841b90610acc565b9361070c848789610d6b565b5f878152602081905260409020805468ffffffffffffffff0019861668ffffffffffffffffff1990911617600887901b68ffffffffffffffff00161781556107548588610af3565b92600191909101917f00000000000000000000000000000000000000000000000000000000000000006001600160a01b031691905f5b8781106107e45750506040805160ff8c168152602081018a90526001600160401b038916818301528a908a9082907f89f0ad3859fec321e325bcc553fe234bcad374789a86f7ba932067f3f05affec9080606081016102f0565b60ff6107f08284610b11565b51169061080961031b836108048b88610ab6565b610b25565b6040516323b872dd60e01b81523360048201526001600160a01b03821660248201526044810189905292906020846064815f8b5af19182156103bc5760019461087393610879575b506040519161085f83610b51565b858060a01b03168252602082015287610bd4565b0161078a565b6108909060203d81116103b5576103a88183610b9b565b610851565b806108a66106436001938587610a9c565b50016106b3565b8363164b5f0360e11b5f52600452600c60245260445ffd5b346100de575f3660031901126100de576040517f00000000000000000000000000000000000000000000000000000000000000006001600160a01b03168152602090f35b346100de575f3660031901126100de576020600354604051908152f35b346100de575f3660031901126100de57602060405160108152f35b346100de5760203660031901126100de5760043560048110156100de576109696020916109c7565b54604051908152f35b346100de5760203660031901126100de576004355f525f6020526040805f20546001600160401b0382519160ff8116835260081c166020820152f35b346100de575f3660031901126100de5780600c60209252f35b60048110156109de575f52600460205260405f2090565b634e487b7160e01b5f52602160045260245ffd5b346100de575f3660031901126100de576020604051670de0b6b3a76400008152f35b60606003198201126100de5760043560ff811681036100de57916024356001600160401b0381116100de57826023820112156100de578060040135926001600160401b0384116100de5760248460051b830101116100de5760240191906044356001600160401b03811681036100de5790565b903590603e19813603018212156100de570190565b9082101561040457610ab39160051b810190610a87565b90565b9035906101fe19813603018212156100de570190565b81810292918115918404141715610adf57565b634e487b7160e01b5f52601160045260245ffd5b8115610afd570490565b634e487b7160e01b5f52601260045260245ffd5b80518210156104045760209160051b010190565b601082101561040457610ab39160051b810190610a87565b356001600160a01b03811681036100de5790565b604081019081106001600160401b03821117610b6c57604052565b634e487b7160e01b5f52604160045260245ffd5b606081019081106001600160401b03821117610b6c57604052565b90601f801991011681019081106001600160401b03821117610b6c57604052565b908160209103126100de575180151581036100de5790565b80549068010000000000000000821015610b6c5760018201808255821015610404575f5260205f20019060018060a01b03815116825491602060ff60a01b91015160a01b16916affffffffffffffffffffff60a81b1617179055565b6001600160401b038111610b6c5760051b60200190565b9060108110156104045760061b0190565b60ff600191160160ff8111610adf57607f600191821c161b90565b916040519060208201924484524260408401526bffffffffffffffffffffffff199060601b1660608301526001600160401b0360c01b9060c01b166074820152605c8152610cc2607c82610b9b565b5190208115610afd570690565b9060108110156104045760051b0190565b91908201809211610adf57565b60405190610200610cfe8184610b9b565b3683375f5b60108110610d20575050806101f7610d1a926110e1565b60011c90565b610d2a8183610b25565b90602082013591605e19813603018312156100de57600192610d4c9101610f38565b610d568286610ccf565b5201610d03565b5f198114610adf5760010190565b60ff90939291931691610d7d83610c30565b93610d8b6040519586610b9b565b838552601f19610d9a85610c30565b0136602087013760405192610200610db28186610b9b565b36853760405190602082019244845260408301526001600160401b0360c01b9060c01b16606082015260488152610dea606882610b9b565b519020935f915f955b85841080610ec9575b15610e76576040516020810191825287604082015260408152610e20606082610b9b565b51902095600f8716610e328187610ccf565b5115610e49575b50610e4390610d5d565b95610df3565b610e439194816001610e5e610e6f948a610ccf565b52610e698287610b11565b52610d5d565b9390610e39565b50945092915003610e845790565b60405162461bcd60e51b815260206004820152601f60248201527f4661696c656420746f2073656c65637420656e6f7567682077696e6e657273006044820152606490fd5b5060648710610dfc565b81810392915f138015828513169184121617610adf57565b600160ff1b8114610adf575f0390565b81810292915f8212600160ff1b821416610adf578184051490151715610adf57565b9190915f8382019384129112908015821691151617610adf57565b905f5f9260408101915b610f4c83836111ae565b9050851015610fa357610f5f83836111ae565b861015610404578560061b0180359160048310156100de57610f95610f9b926020610f8b6001966109c7565b5491013590610acc565b90610ce0565b940193610f42565b9150919250610fb1816111e3565b913560048110156100de57610fd891610fcc610fd3926109c7565b5490610ce0565b6111e3565b9081811480156110c3575b80156110b2575b6110aa57610ff78261121c565b906110018161121c565b91801580156110a2575b6110985761104b6ec097ce7bc90715b34b9f1000000000926110456110869561103f61103961105c9661127a565b9161127a565b90610ed3565b9561125e565b93611057600154610eeb565b610efb565b0561108160025493670de0b6b3a7640000806110788784610acc565b04910492610f1d565b610ed3565b905f821315611093575090565b905090565b5050505060025490565b50821561100b565b505060025490565b50670de0b6b3a76400008214610fea565b50670de0b6b3a76400008114610fe3565b91908203918211610adf57565b906001915b601083106110f357509050565b6110fd8382610ccf565b5191835b8015801580611166575b1561114b575f19820191808311610adf576111316111298487610ccf565b519186610ccf565b521561110157634e487b7160e01b5f52601160045260245ffd5b509261115d6001939495929585610ccf565b520191906110e6565b505f198201828111610adf5761117d869186610ccf565b511161110b565b60ff81169060048210156109de57610fd3610fd89160081c610fcc6111a8826111e3565b946109c7565b903590601e19813603018212156100de57018035906001600160401b0382116100de57602001918160061b360383136100de57565b600354801561121657670de0b6b3a7640000820291808304670de0b6b3a76400001490151715610adf57610ab391610af3565b50505f90565b670de0b6b3a764000081101561124857670de0b6b3a764000003670de0b6b3a76400008111610adf5790565b670de0b6b3a763ffff198101908111610adf5790565b90808210156112715790610ab3916110d4565b610ab3916110d4565b80156112b857611289906112ef565b670de0b6b3a7640000810290808205670de0b6b3a76400001490151715610adf576714057b7ef767814f900590565b60405162461bcd60e51b815260206004820152600f60248201526e1b1b8a0c0a481d5b9919599a5b9959608a1b6044820152606490fd5b805f81131561142357670de0b6b3a7640000811261140357506001905b670de0b6b3a764000081056fffffffffffffffffffffffffffffffff811160071b90811c6001600160401b03811160061b90811c63ffffffff811160051b90811c61ffff811160041b90811c9060ff821160031b91821c92600f841160021b93841c94600160038711811b96871c119617171717171717670de0b6b3a7640000810291811d90670de0b6b3a764000082146113f057506706f05b59d3b20000905b5f82136113ba5750500290565b80670de0b6b3a764000091020590671bc16d674ec800008212156113e2575b60011d906113ad565b809192019160011d906113d9565b9050670de0b6b3a7640000929150020290565b5f1991508015610afd576ec097ce7bc90715b34b9f10000000000561130c565b63059b101b60e01b5f5260045260245ffdfea264697066735822122053c5f9ea3f0ebdda81c7470200eb8738e4cd84cfb631695332961f220efb33c764736f6c634300081c0033","linkReferences":{}},"methodIdentifiers":{"ANT_PRICE()":"be29e3d0","CANDIDATES_PER_POOL()":"137978c3","DEFAULT_COST_UNIT()":"6ecfa702","MAX_MERKLE_DEPTH()":"043b7587","PRECISION()":"aaf5eb68","antToken()":"4ec42e8e","costUnitPerDataType(uint8)":"0e19c539","estimateMerkleTreeCost(uint8,(bytes32,(address,(uint8,uint256,(uint8,uint256)[]))[16])[],uint64)":"9e9dfde1","getPaymentInfo(bytes32)":"a75e9b19","maxCostUnit()":"35815564","minPrice()":"e45be8eb","payForMerkleTree(uint8,(bytes32,(address,(uint8,uint256,(uint8,uint256)[]))[16])[],uint64)":"937c07b7","payForMerkleTree2(uint8,(bytes32,(address,uint256)[16])[],uint64)":"a960bd49","payments(bytes32)":"0716326d","scalingFactor()":"ed3437f8"},"id":1}